{
  "contractName": "Election",
  "abi": [
    {
      "inputs": [],
      "payable": false,
      "stateMutability": "nonpayable",
      "type": "constructor"
    },
    {
      "anonymous": false,
      "inputs": [
        {
          "indexed": true,
          "internalType": "uint256",
          "name": "_candidateId",
          "type": "uint256"
        }
      ],
      "name": "votedEvent",
      "type": "event"
    },
    {
      "constant": true,
      "inputs": [
        {
          "internalType": "uint256",
          "name": "",
          "type": "uint256"
        }
      ],
      "name": "candidates",
      "outputs": [
        {
          "internalType": "uint256",
          "name": "id",
          "type": "uint256"
        },
        {
          "internalType": "string",
          "name": "name",
          "type": "string"
        },
        {
          "internalType": "uint256",
          "name": "voteCount",
          "type": "uint256"
        }
      ],
      "payable": false,
      "stateMutability": "view",
      "type": "function"
    },
    {
      "constant": true,
      "inputs": [],
      "name": "candidatesCount",
      "outputs": [
        {
          "internalType": "uint256",
          "name": "",
          "type": "uint256"
        }
      ],
      "payable": false,
      "stateMutability": "view",
      "type": "function"
    },
    {
      "constant": true,
      "inputs": [
        {
          "internalType": "address",
          "name": "",
          "type": "address"
        }
      ],
      "name": "voters",
      "outputs": [
        {
          "internalType": "bool",
          "name": "",
          "type": "bool"
        }
      ],
      "payable": false,
      "stateMutability": "view",
      "type": "function"
    },
    {
      "constant": false,
      "inputs": [
        {
          "internalType": "uint256",
          "name": "_candidateId",
          "type": "uint256"
        }
      ],
      "name": "vote",
      "outputs": [],
      "payable": false,
      "stateMutability": "nonpayable",
      "type": "function"
    }
  ],
  "bytecode": "0x608060405234801561001057600080fd5b506100556040518060400160405280600b81526020017f43616e646964617465203100000000000000000000000000000000000000000081525061009e60201b60201c565b6100996040518060400160405280600b81526020017f43616e646964617465203200000000000000000000000000000000000000000081525061009e60201b60201c565b6101bf565b60026000815480929190600101919050555060405180606001604052806002548152602001828152602001600081525060016000600254815260200190815260200160002060008201518160000155602082015181600101908051906020019061010992919061011a565b506040820151816002015590505050565b828054600181600116156101000203166002900490600052602060002090601f016020900481019282601f1061015b57805160ff1916838001178555610189565b82800160010185558215610189579182015b8281111561018857825182559160200191906001019061016d565b5b509050610196919061019a565b5090565b6101bc91905b808211156101b85760008160009055506001016101a0565b5090565b90565b6103e9806101ce6000396000f3fe608060405234801561001057600080fd5b506004361061004c5760003560e01c80630121b93f146100515780632d35a8a21461007f5780633477ee2e1461009d578063a3ec138d14610152575b600080fd5b61007d6004803603602081101561006757600080fd5b81019080803590602001909291905050506101ae565b005b6100876102cc565b6040518082815260200191505060405180910390f35b6100c9600480360360208110156100b357600080fd5b81019080803590602001909291905050506102d2565b6040518084815260200180602001838152602001828103825284818151815260200191508051906020019080838360005b838110156101155780820151818401526020810190506100fa565b50505050905090810190601f1680156101425780820380516001836020036101000a031916815260200191505b5094505050505060405180910390f35b6101946004803603602081101561016857600080fd5b81019080803573ffffffffffffffffffffffffffffffffffffffff169060200190929190505050610394565b604051808215151515815260200191505060405180910390f35b6000803373ffffffffffffffffffffffffffffffffffffffff1673ffffffffffffffffffffffffffffffffffffffff16815260200190815260200160002060009054906101000a900460ff161561020457600080fd5b60008111801561021657506002548111155b61021f57600080fd5b60016000803373ffffffffffffffffffffffffffffffffffffffff1673ffffffffffffffffffffffffffffffffffffffff16815260200190815260200160002060006101000a81548160ff0219169083151502179055506001600082815260200190815260200160002060020160008154809291906001019190505550807ffff3c900d938d21d0990d786e819f29b8d05c1ef587b462b939609625b684b1660405160405180910390a250565b60025481565b6001602052806000526040600020600091509050806000015490806001018054600181600116156101000203166002900480601f0160208091040260200160405190810160405280929190818152602001828054600181600116156101000203166002900480156103845780601f1061035957610100808354040283529160200191610384565b820191906000526020600020905b81548152906001019060200180831161036757829003601f168201915b5050505050908060020154905083565b60006020528060005260406000206000915054906101000a900460ff168156fea265627a7a72315820f09af0a1798e4abd8ecaeb3e57d490c009e8f3751fc5afdd508b0bfc76015f6f64736f6c634300050c0032",
  "source": "pragma solidity ^0.5.12;\r\n\r\ncontract Election {\r\n\t//store read candidate\r\n\tstruct Candidate {\r\n\t\tuint id;\r\n\t\tstring name;\r\n\t\tuint voteCount;\r\n\t}\r\n\r\n\t//stocarea conturilor care au votat\r\n\tmapping(address => bool) public voters;\r\n\t//constructor\r\n\t//store candidate\r\n\t//fetch candidate\r\n\tmapping(uint => Candidate) public candidates;\r\n\t//nu poti itera peste ea, nu poti face count\r\n\r\n\tuint public candidatesCount;\r\n\r\n\tevent votedEvent(\r\n\t\tuint indexed _candidateId\r\n\t);\r\n\r\n\tconstructor () public {\r\n\t\t//state variable if without _\r\n\t\taddCandidate('Candidate 1');\r\n\t\taddCandidate('Candidate 2');\r\n\t}\r\n\r\n\tfunction addCandidate (string memory _name) private {\r\n\t\tcandidatesCount ++;\r\n\t\tcandidates[candidatesCount] = Candidate (candidatesCount, _name, 0);\r\n\t}\r\n\r\n\tfunction vote(uint _candidateId) public {\r\n\t\t//adresa nu a mai votat inainte\r\n\t\t//luam referinta celor care au votat si fac check daca acest voter a votat inainte; daca nu a votat => false, \r\n\t\t//dar cu ! el va merge pe true, deci acel require este satisfacut, deci cel care a votat este unic\r\n\t\trequire(!voters[msg.sender]);\r\n\r\n\t\t//votul sa fie unic de la fiecare adresa\r\n\t\t//votul merge la un candidat valid\r\n\t\trequire(_candidateId > 0 && _candidateId <= candidatesCount);\r\n\r\n\t\t//solidity ne ofera posibilitatea de a oferi mai multe argumente, adica metadata mai mult decat candidateId;\r\n\t\t//pentru a avea votul unic este nevoie sa stim contul care voteaza\r\n\t\tvoters[msg.sender] = true;\r\n\t\t//referinta catre voters mapping, iar cu msg.sender vedem daca contul respectiv a mai votat vreodata\r\n\t\t//update candidate vote count; adica posibilitatea de a vota\r\n\t\tcandidates[_candidateId].voteCount ++;\r\n\r\n\t\temit votedEvent(_candidateId);\r\n\t}\r\n}",
  "sourcePath": "F:/FACULTATE/AN4/dapp/contracts/Election.sol",
  "compiler": {
    "name": "solc",
    "version": "0.5.12+commit.7709ece9.Emscripten.clang"
  },
  "schemaVersion": "3.0.20",
  "updatedAt": "2020-01-20T17:52:43.434Z",
  "networkType": "ethereum",
  "devdoc": {
    "methods": {}
  },
  "userdoc": {
    "methods": {}
  }
}